:100000000C94EA020C9431030C9431030C943103E8
:100010000C9431030C9431030C9431030C94310390
:100020000C9431030C9431030C945B230C942D2419
:100030000C94CB1A0C9431030C9431030C943103BF
:100040000C9431030C9431030C9431030C94310360
:100050000C9431030C94241B0C9431030C94310345
:100060000C9431030C9431030C9431030C94310340
:100070000C9431030C9431030C9431030C94310330
:100080000C9431030C9431030C9431030C94310320
:100090000C9431030C9431030C9431030C94310310
:1000A0000C9431030C9431030C943103FF080209C2
:1000B000220933093B0946099E099E099E098C09BC
:1000C0008F0949094C0951095E096B096E097209CA
:1000D0007F0913101310451045109210B01008122C
:1000E0000812F210871198119811F81108120812CD
:1000F00001129D129D12AF12AF12A612AF12AF12D3
:10010000AF129D129D12AB12AF12AF12AB129A2416
:10011000C124B925C124B9250D253025B925872548
:1001200096251E001F00200021002200230024002D
:100130002500260027002D002E002A0049004A0035
:1001400014001A000800150017001C0018000C000D
:10015000120013002F00300031004C004D00E00071
:1001600004001600070009000A000B000D000E0035
:100170000F003300340028004B004B00E1001D004D
:100180001B000600190005001100100000003600D9
:1001900037003800E50052002B00E000E2000000CC
:1001A000000000002C000000000000000000E7003C
:1001B000E400500051004F00005C0100010001000C
:1001C0000100010001000100010001000100010027
:1001D0000100010001000100010001000100010017
:1001E0000100010001000100010001000100010007
:1001F00001000100010001000100010001000100F7
:1002000001000100010001000100010001000100E6
:1002100001000100010001000100010001000100D6
:1002200001000000010001000100010001000100C7
:1002300001000100000000000000010000000000BB
:100240000000000001000100010001000100005C4D
:100250000100010001000100010001000100010096
:100260000100010001000100010001000100010086
:100270000100010001000100010001000100010076
:100280000100010001000100010001000100010066
:100290000100010001000100010001000100010056
:1002A0000100010001000100010001000100010046
:1002B0000100010001000100000001000100010037
:1002C0000100010001000100010000000000000029
:1002D000010000000000000000000100010001001A
:1002E00001000100005C01000100010001000100AB
:1002F00001000100010001000100010001000100F6
:1003000001000100010001000100010001000100E5
:1003100001000100010001000100010001000100D5
:1003200001000100010001000100010001000100C5
:1003300001000100010001000100010001000100B5
:1003400001000100010001000100010001000000A6
:100350000100010001000100010001000100010095
:10036000000000000000010000000000000000008C
:100370000100010001000100010000000000000078
:1003800000002A2B280000000000000000000000F0
:10039000000000000029000000002C1E3420212253
:1003A00024342627252E362D3738271E1F202122BC
:1003B000232425263333362E37381F040506070835
:1003C000090A0B0C0D0E0F10111213141516171825
:1003D000191A1B1C1D2F3130232D35040506070863
:1003E000090A0B0C0D0E0F10111213141516171805
:1003F000191A1B1C1D2F3130354C00000000000065
:1004000000000000000000000000000000007E0F5F
:1004100000D4FFFFFFC70000007804033000000095
:100420000A0341004C005000530000001603710005
:100430006D006B006200750069006C00640065006F
:10044000720000000403090409025B00030100A01C
:10045000FA09040000010301010009211101000152
:100460002240000705810308000A09040100020375
:10047000000000092111010001222200070582036A
:100480002000010705030320000109040200010305
:1004900000000009211101000122BC0007058403AE
:1004A00020000A1201100100000008EDFE6060014A
:1004B00000010203010660FF0961A1010962150044
:1004C00026FF009520750881020963150026FF00AC
:1004D000952075089102C005010902A10185020954
:1004E00001A10005091901290515002501950575CA
:1004F000018102950175038101050109300931155A
:1005000081257F95027508810609381581257F951B
:100510000175088106050C0A38021581257F9501B1
:1005200075088106C0C005010980A1018503190174
:100530002AB700150126B700950175108100C00586
:100540000C0901A101850419012AA002150126A0A8
:1005500002950175108100C005010906A1018505FC
:10056000050719E029E715002501950875018102A5
:100570000507190029EF1500250195F07501810285
:100580000508190129059505750191029501750365
:100590009101C005010906A101050719E029E71528
:1005A00000250195087501810295017508810105F5
:1005B00007190029FF150026FF0095067508810020
:1005C0000508190129059505750191029501750325
:1005D0009101C00011241FBECFEFDAE0DEBFCDBF16
:1005E00004B603FE27C08091A6029091A702A091B5
:1005F000A802B091A9028730904BA740B04BD1F42C
:100600001092A6021092A7021092A8021092A902BC
:1006100014BE84B7877F84BF0FB6F894A8958091E5
:100620006000886180936000109260000FBEE0E07F
:10063000F8E3099511E0A0E0B1E0ECECFCE402C0C5
:1006400005900D92AA39B107D9F722E0AAE9B1E0E5
:1006500001C01D92A63AB207E1F70E9411200C9446
:1006600064260C940000849A859A819A089580FFEC
:1006700002C08C9A01C08C9881FF02C08D9A01C083
:100680008D9882FF02C0899A08958998089581E023
:10069000089581E008950C94490308950C944D0346
:1006A0001F93CF93DF9300D000D01F92CDB7DEB75A
:1006B00049835A836B833091B20189819A813111C8
:1006C00014C0662359F0222349F00E94D617182F30
:1006D000682F89819A810E947F1703C00E94AA1700
:1006E000182F69817A81812F04C00E94D6176981F1
:1006F0007A810F900F900F900F900F90DF91CF9114
:100700001F910C94700AFC01262F40815181628157
:10071000738184810C945003CF93DF93EC0160E0EC
:100720000E948303BE01DF91CF910C944E03FF9290
:100730000F931F93CF93DF93E82FF0E0E658FC4F21
:10074000F490C82FC695C695C695D0E0FE01E65F29
:10075000FB4F0491877010E0082E02C01595079595
:100760000A94E2F701701127FE01E650FC4FC49194
:10077000D0E002C0D595C7958A95E2F7C170DD2714
:100780000115110519F081EE0E94AE0E209719F0A7
:1007900086EE0E94AE0E8F2D0E94C00FCD2B19F059
:1007A00086EE0E94580F012B41F081EEDF91CF9130
:1007B0001F910F91FF900C94580FDF91CF911F91D3
:1007C0000F91FF900895EF92FF920F931F93CF9395
:1007D000DF93EC01162F0AE08881882309F457C0C3
:1007E000813009F045C08981813051F47E0182E079
:1007F000E80EF11CCA818C2F0E94AE0E8C2F12C005
:10080000823049F47E01E2E0EE0EF11C8A810E9402
:10081000AE0EE7012FC0833041F47E01F2E0EF0E0F
:10082000F11C8A810E94580FF4CF843011F0219678
:1008300021C02A81229680E090E030E020533109E7
:100840002A30310558F4089FA001099F500D11244A
:10085000C901840F951F21962881EFCF009751F091
:10086000EFE9FFE03197F1F700C000000197F6CF04
:100870000E9497032196812F882309F4ADCFEFE9D9
:10088000FFE03197F1F700C000008150F5CFDF9114
:10089000CF911F910F91FF90EF90089560E00C941D
:1008A000E3038F929F92AF92BF92CF92DF92EF922B
:1008B000FF920F931F936B017C0181E090E0A0E019
:1008C000B0E04C015D0104C0880C991CAA1CBB1C43
:1008D0004A95D2F7AC01BD0104C0440F551F661FF5
:1008E000771F2A95D2F7482959296A297B2904C0FC
:1008F000880F991FAA1FBB1F0A95D2F78A019B0177
:100900000C211D212E213F2140175107620773073B
:1009100039F4BC01CD016C297D298E299F290AC09B
:1009200080959095A095B095BC01CD016C217D215D
:100930008E219F211F910F91FF90EF90DF90CF901C
:10094000BF90AF909F908F9008950F93382F262FD0
:1009500060911D0270911E0280911F0290912002F1
:10096000042F432F0E9451040F910C94BB160E9438
:10097000701B0E940E19811102C00E94AE190C94C6
:1009800035070C9431070C94370381E008950C94DB
:10099000C504CF93C82F0E94C3048C2F0E94C704A4
:1009A000CF91089508950E948B120E94D2042FEFD8
:1009B00084E39CE0215080409040E1F700C00000BB
:1009C0000C944A1B0F931F93CF93DF93EC0161E0CC
:1009D0000E9483038C01BE010E94AE08882379F136
:1009E000BE01C8010E944B03882349F1BE01C80122
:1009F0000E94A60B882319F1BE01C8010E94E70BD3
:100A00008823E9F0BE01C8010E94120D8823B9F0C5
:100A10008A81882369F001158CE5180731F00E3DB5
:100A20001C4531F40E94AE190AC00E94D30407C0CD
:100A3000CE01DF91CF911F910F910C94470380E07D
:100A4000DF91CF911F910F91089580E090E008957C
:100A50000895880F991FFC01E65EFB4F85919491E4
:100A60000895CF93DF930E94700A0E944906EC011B
:100A70008115904508F041C0C11580E4D80708F001
:100A8000D1C0C83ED10510F5C03ED10508F0FDC06B
:100A9000C83AD10578F4C53AD10508F0A2C0C130F2
:100AA000D10509F4F2C008F4EEC0C430D10508F055
:100AB000ECC0E9C0CF3BD10508F49BC0C03CD105D8
:100AC00008F4E1C0CE01805C91099EC0C11590E29E
:100AD000D90758F4C11521E0D20708F0D6C0C03FAD
:100AE000D10508F4D0C0D065D0C0C11580E3D807C7
:100AF00008F08EC0CE019F7087C0C11595E5D9075B
:100B000008F043C0C11524E5D20708F0A2C0C11502
:100B100082E5D80708F5C11591E5D90708F085C029
:100B2000CE0174E0969587957A95E1F783709C2FB6
:100B3000937021E030E002C0220F331F9A95E2F754
:100B40003C68382BCF70C695C69580E2C89FE001FF
:100B50001124C22BD32B99C09E01237033278C2FD5
:100B600086958695C115D34508F064C0C1E0D0E0F4
:100B700002C0CC0FDD1F2A95E2F720E2829FC00160
:100B80001124C82BD92BDC6880C0C11529E5D207F8
:100B9000A0F4C11588E5D80708F060C0C11596E536
:100BA000D90708F070C08C2F0E94DD068F71C82F06
:100BB000D0E0DC2FCC27D06268C0C1152AE5D2076F
:100BC00008F451C0CE0190568115904208F05BC0E8
:100BD0008D2F8F710E94DD06DD27D0628F71D82B9B
:100BE00054C0C55AD0E0CD5BDE4FC881D0E0D064A0
:100BF0004CC0C85AD0E0CC0FDD1FCB5EDE4F099051
:100C0000D881C02DD46441C00E942905EC013DC0AB
:100C1000CE019927D3FF03C0EC01D86C36C0EC019C
:100C2000D06C33C0DF70D06A30C0DC2FCC27C16FEE
:100C3000D06A2BC0C1E0D0E002C0CC0FDD1F2A95E6
:100C4000E2F720E2829FC0011124C82BD92BDA6879
:100C50001CC0DC2FCC27C46FD06A17C0DC2FCC2778
:100C6000C06FD06A12C08C2F8F700E94DD0694E096
:100C7000D695C7959A95E1F7CF70D0E0DC2FCC27B9
:100C8000D069C82B02C0C0E0D0E0CE01DF91CF9187
:100C900008958238910569F1B0F48133910509F422
:100CA0006DC048F48932910509F463C08A32910518
:100CB00009F469C008958533910509F455C0893355
:100CC0009105B9F00895833E910569F138F4803EAD
:100CD0009105B1F0823E910509F10895863E910596
:100CE000A9F1873E9105B9F1843E910509F064C0F0
:100CF00023C02091970220FD4FC021FD4DC00895D3
:100D00008091970280FD44C08091980280FF44C08A
:100D10008091970284FD42C083EE4DC0809197027E
:100D200082FF38C0F5CF8091970282FD33C0809159
:100D3000980280FD31C0ECCF8091980281FF32C0D3
:100D40008091970284FD2AC087EE35C0809197027A
:100D500083FF26C0F5CF8091970283FD21C080914B
:100D6000980281FD1FC0ECCF8091970285FD1CC0C9
:100D70001DC08091970285FD19C016C08091970211
:100D800086FD16C017C08091970286FD13C010C063
:100D900089E311C082EE0FC080EE0DC080E00BC071
:100DA00086EE09C084EE07C089E205C085E303C072
:100DB0008AE201C081E390E008959091970292FF4A
:100DC0000DC0282F2871283019F4877F846006C051
:100DD000282F2471243011F48B7F886093FF0DC07D
:100DE000282F2871283119F4877E846106C0282FA6
:100DF0002471243111F48B7E88612091980220FFA8
:100E00000DC0382F3871383019F4877F816006C0E3
:100E1000382F3171313011F48E7F886021FF0DC081
:100E2000282F2871283119F4877E816106C0282F68
:100E30002171213111F48E7E886194FD877E0895A1
:100E4000E82FF0E0EE0FFF1FE957FD4F8081918101
:100E50000895089580EA8A95F1F7089508950C940D
:100E60002E070C942F070C942E070C943307CF9366
:100E7000DF93A5E5B1E04AE551E061E070E08D91D6
:100E8000E82FE295EF70F0E021A18F70EB0102C036
:100E9000CC0FDD1F8A95E2F7CE019C2F909592230F
:100EA00091A392A1892B82A34A175B0741F7A6E47D
:100EB000B1E045E551E061E070E08D91E82FE29509
:100EC000EF70F0E021A18F70EB0102C0CC0FDD1FAD
:100ED0008A95E2F7CE019C2F9095922391A392A13F
:100EE000892B82A34A175B0741F7EDE7F2E0A7E8F9
:100EF000B2E087E892E0119211921D921D928E1736
:100F00009F07C9F785E00E941608DF91CF910C94E6
:100F1000B7046F927F928F929F92AF92BF92CF92BF
:100F2000DF92EF92FF920F931F93CF93DF9385E5AC
:100F3000C82E81E0D82E0DE712E097E8A92E92E0A6
:100F4000B92E712C88248394912CF60181916F0124
:100F5000C82FC295CF70D0E099A18F70740101C0E5
:100F6000EE0C8A95EAF7892F8E2989A38AA16E2C27
:100F7000609486218AA30E942A07E6E4F1E040E01B
:100F800050E020E030E06191A62FA295AF70B0E074
:100F900090968C9190E06F7002C0959587956A95B8
:100FA000E2F780FD08C0C401042E02C0880F991F1B
:100FB0000A94E2F702C080E090E0282B392B4F5FC3
:100FC0005F4F4F305105F9F689A1682269A28AA1C5
:100FD000E82AEAA2F801808191812817390721F0D7
:100FE0003183208381E001C080E0782A0E5F1F4FAB
:100FF000A016B10609F0A9CF272D45E067E872E0F9
:101000008DE792E00E9417080E94C104872DDF91AE
:10101000CF911F910F91FF90EF90DF90CF90BF90F5
:10102000AF909F908F907F906F9008950895FF925A
:101030000F931F93CF93DF93F82E092F162FD72FDF
:10104000C42F222349F081E080939C010E94FD1A65
:1010500090939B0180939A0180919C018823D9F001
:1010600080919A0190919B010E94151B069798F020
:10107000EF2DF02FA12FBD2F80E090E04C2F50E0FE
:101080008417950734F4219131912D933D93019666
:10109000F7CF10929C01DF91CF911F910F91FF909C
:1010A000089582E290E00E942226823281F483E257
:1010B00090E00E942226843051F484E290E00E9465
:1010C000222691E0823109F090E0892F01C080E072
:1010D00081700895CF93C82F811102C06FEF01C0B6
:1010E00062E282E290E00E943026C11102C06FEFFE
:1010F00001C064E083E290E00E943026C11102C08A
:101100006FEF01C062E184E290E0CF910C94302651
:1011100080E00E946A080C940819089585E290E026
:101120000E942226682F70E080E090E0089585E21A
:1011300090E00C9430260E948D080E945108811185
:101140000CC060E070E0CB010E9497080E94EB09A0
:101150000E94CA0A81E00C946A080895CF93FB01AB
:10116000C281CC23E9F09C0122513F452031310559
:1011700020F482510E94DA0A0CC08031FFE59F07FB
:1011800051F481E00E94E11643E062E081E00E94B8
:10119000A504C0E018C081319F45A9F482E0F2CFD8
:1011A0008031EFE59E0711F481E004C081319F4555
:1011B00049F482E00E94021743E062E081E00E946D
:1011C000A50401C0C1E08C2FCF9108952FEFFC0141
:1011D00020830895EF92FF920F931F93CF93DF9395
:1011E000EC01162FE8818E2F90E0FC013197E3315E
:1011F000F10508F0A3C0EA5AFF4F0C9401261982AA
:1012000089E04DC08981823039F0833061F08130CE
:1012100029F50E94091B02C00E948E089A838B83C5
:101220007C836D838DC07E0100E0802F0E942007AB
:10123000F701928383830F5FF2E0EF0EF11C05301C
:10124000A1F77EC08981823049F46A817B818C81DB
:101250009D810E9407260E94970872C0612FCE01CF
:101260000E94E6086DC04B816A8189810E94BD0998
:101270009C838D8365C02C813D81322723273227B3
:101280004B816A8189810E94D6095AC00E94EB096C
:1012900057C00E947D0A24C00E947F0A99838A83D6
:1012A0004FC06B8170E089819A81AE014C5F5F4FC6
:1012B0009827892798270E94820A42C06B8170E094
:1012C00089819A81AE014C5F5F4F982789279827C3
:1012D0000E94A70A35C00E94CA0A32C00E94AA0909
:1012E00089832EC06B8170E089819A81AE014C5F49
:1012F0005F4F9827892798270E942A0A21C06B816F
:1013000070E089819A81AE014C5F5F4F98278927F1
:1013100098270E944E0A14C00E94880811C0CE016E
:101320000E94011F2FEF81EE94E0215080409040F9
:10133000E1F700C000000E944A1B02C08FEF8883C3
:10134000612FCE01DF91CF911F910F91FF90EF9010
:101350000C94011F84E0089550E0440F551F2EE1C6
:10136000629F400D511D11249A0166E9869F200D50
:10137000311D1124C901869608950F931F93CF93B1
:10138000DF930E94AC098C010E942226C82FD0E076
:10139000DC2FCC27C80101960E9422269E01282B13
:1013A000C901DF91CF911F910F9108950F931F9362
:1013B000CF93DF93122F032F0E94AC09EC01602F13
:1013C0000E943026612FCE010196DF91CF911F91AF
:1013D0000F910C943026AF92BF92CF92DF92EF9292
:1013E000FF920F931F93CF93DF93A12CE12CF12C4D
:1013F000B12C00E010E0C0E0D0E06701C00ED11ECB
:10140000FE01EE0FFF1FEC0DFD1DEE5DFE4F259161
:1014100034914C2F6B2D8A2D0E94D6092196CF3006
:10142000D10571F7025E1F4FB39485E0B812E3CF88
:1014300086E9E80EF11CA39484E0A812D9CFDF91CD
:10144000CF911F910F91FF90EF90DF90CF90BF90C1
:10145000AF900895EF92FF920F931F93CF93DF9376
:10146000EA017A01E60EF71E8C01C8018696CE15B8
:10147000DF0569F0083522E0120720F40E942226D9
:10148000888301C0188221960F5F1F4FEECFDF9136
:10149000CF911F910F91FF90EF900895EF92FF92DF
:1014A0000F931F93CF93DF93EA017A01E60EF71EA5
:1014B0008C01C8018696CE15DF0559F0083522E06B
:1014C000120718F468810E94302621960F5F1F4F83
:1014D000F0CFDF91CF911F910F91FF90EF90089582
:1014E000462F843038F4753028F46F3018F4672FA5
:1014F0000C94BD0980E090E0089580E1089582E8B1
:1015000091E00895EF92FF920F931F93CF93DF9393
:10151000EA017A01E60EF71E8C01C80182589D4F40
:10152000CE15DF0569F0023821E0120720F40E9491
:101530002226888301C0188221960F5F1F4FEDCFAE
:10154000DF91CF911F910F91FF90EF900895EF924F
:10155000FF920F931F93CF93DF93EA017A01E60E78
:10156000F71E8C01C80182589D4FCE15DF0559F03A
:10157000023821E0120718F468810E943026219673
:101580000F5F1F4FEFCFDF91CF911F910F91FF9012
:10159000EF900895CF93DF93CEE7D2E060E0CE01E5
:1015A0000E9430262196C11584E0D807B9F7DF9153
:1015B000CF910895DF92EF92FF920F931F93CF93F5
:1015C000DF9300D000D0CDB7DEB7F82E8FE08F15B7
:1015D000E8F18FEF93E00E942226811137C00EE7D9
:1015E00012E0FF2069F0011584E0180779F1C801C5
:1015F0000E942226811101C0FA940F5F1F4FF1CF84
:1016000019821A821B821C82DD24D39478018FEF09
:10161000E81AF80AC8010E94222689831A828823C0
:10162000A9F09FEF980F933058F48A83D9820E5F08
:101630001F4FC7010E9422268B83882339F078012F
:10164000CE0101960E944E048701E0CF0F900F90CB
:101650000F900F90DF91CF911F910F91FF90EF901E
:10166000DF9008950F931F93CF93DF93C62FD42F4E
:10167000122FFC0182818823C9F060939F010E9490
:10168000FD1A90939E0180939D0180E28C0F88301B
:1016900008F057C0C77081E001C0880FCA95EAF70B
:1016A000DF91CF911F910F910C94D30F80919F01E7
:1016B000681330C080919D0190919E010E94151B7E
:1016C000883C910538F500E20D0FCD17B9F080E2A6
:1016D0008C0F883040F4C77081E001C0880FCA9534
:1016E000EAF70E94DA0F083028F581E09D2F977005
:1016F00001C0880F9A95EAF70E94D30F812F0E94AC
:10170000C00F0830F0F4D77081E001C0880FDA957F
:10171000EAF70AC080E28C0F883098F4C77081E045
:1017200001C0880FCA95EAF7DF91CF911F910F9101
:101730000C94DA0F812FDF91CF911F910F910C94B0
:10174000C00FDF91CF911F910F9108959C01CB01A4
:10175000233F4CE53407F9F078F4283DFCE53F07DA
:10176000B9F0293D4CE5340711F1273D3C4531F5F1
:1017700026E241EE61EE1EC0253FFCE53F0799F0F1
:1017800070F0263F3C45D1F427E245EE66EE12C0EC
:1017900027E245EE0EC026E241EE60EE0BC027E2E6
:1017A00045EE64EE07C026E241EE62EE03C028E299
:1017B00041E065EE0E94320B80E00895FC018281D9
:1017C000882319F010929F01089581E00895CF9326
:1017D000DF93EC01FB018281882309F41FC1C23031
:1017E000FCE5DF0708F41BC1C6319CE5D90738F0DA
:1017F0009E012A5F3C452930310508F010C10E9446
:1018000021199093980280939702C031ECE5DE078E
:1018100009F4C3C008F041C0C8308CE5D80709F40A
:101820009AC0F0F4C430ECE5DE0709F487C068F430
:10183000C2308CE5D80709F477C0C330DC4509F025
:10184000E3C080919702826076C0C630ECE5DE0787
:1018500009F46EC008F07BC08091970288606BC06D
:10186000CC308CE5D80709F485C068F4CA30ECE5C3
:10187000DE0709F474C008F079C00E948B128091D1
:101880009702806858C0CE308CE5D80709F476C03E
:1018900008F07FC0809197028BC0CB3FECE5DE075C
:1018A00009F44FC018F5C3318CE5D80709F47DC0A1
:1018B00078F4C131ECE5DE0709F473C0C231DC45D0
:1018C00009F0A2C00E948B12809197028F7733C0DB
:1018D000C5318CE5D80709F472C008F486C0CA3F48
:1018E000DC4509F091C0809198023EC0CF3FFCE5F5
:1018F000DF0709F45FC058F4CD3F9CE5D90709F430
:1019000044C008F43FC08091980282602DC0C1306D
:10191000FDE5DF0709F475C008F45DC0C230DD45A0
:1019200009F072C080E06EC080919702816003C0B0
:101930008091970280618093970266C080919702A0
:1019400011C0809198028260809398025DC080915E
:1019500097028062F0CF809197028064ECCF8091F3
:10196000970288608460E7CF8160EECF8091970214
:101970008E7FE1CF809197028D7FDDCF809197029E
:10198000877FD9CF8091980218C0809198028D7F6F
:10199000DBCF809197028F7ECECF809197028F7D93
:1019A000CACF809197028F7BC6CF80919702877FA5
:1019B0008B7FC1CF809198028D7F8E7FC5CF809124
:1019C000970282FB222720F991E0922790FB82F96F
:1019D00090FB83F9B0CF80919802982F90959170E9
:1019E0008E7F892B90FB81F9AFCF0E948B12809163
:1019F000970287FB222720F991E0922790FB87F935
:101A00009ACF81E00E94B01980919702909198023C
:101A10000E9432190E948B1280E001C081E0DF91A8
:101A2000CF910895CF93DF9386319C4541F5EB012B
:101A30000E945718982F8A8120910001309101014E
:101A4000882379F09A7A81E009F480E08093A001FC
:101A5000911102C069E201C065E3C9010E944B1AFD
:101A60000AC08091A001811102C069E201C065E352
:101A7000C9010E94561A0E94A51880E001C081E0A9
:101A8000DF91CF9108959093A6018093A5010895C9
:101A9000E091A501F091A601309721F00190F0812D
:101AA000E02D099480E00895E091A501F091A60150
:101AB000309799F020911401222359F02091970238
:101AC00027FF07C0DC012C9111962C93119725E07C
:101AD0002C930280F381E02D09940895E091A501F3
:101AE000F091A601309739F022E0DC012C930480BC
:101AF000F581E02D099408952091A3013091A4016E
:101B00002817390771F09093A4018093A301E09105
:101B1000A501F091A601309721F00680F781E02D14
:101B2000099408952091A1013091A2012817390745
:101B300071F09093A2018093A101E091A501F09131
:101B4000A601309721F00084F185E02D09940895D5
:101B500085B7806885BF85B7806885BF089508957B
:101B60000C9433030C94AF0D0C94AF0D0E94A80D90
:101B70000E94B20D0C94B00D81E008950C94BC0D40
:101B80000E94F41A0E9437070E949B080E94871B3C
:101B90000C94B40D7F928F929F92AF92BF92CF928E
:101BA000DF92EF92FF920F931F93CF93DF93CDB706
:101BB000DEB72A970FB6F894DEBF0FBECDBF0E94E6
:101BC00089070E94BE0D811111C08FEF89838A831E
:101BD0001B820E94FD1A8160782F9D838C8349812E
:101BE0005A816B818D810E947A0E4FC048EAA42EE3
:101BF00041E0B42E00E010E0702E802F0E942007FC
:101C00006C01F501819091905F01882699268114DD
:101C1000910431F40F5F1F4F0530110569F7D5CFDF
:101C200080914A0281FD0E94290780E0EE24E3941E
:101C3000F12C94012E213F21232B09F18E837F82E9
:101C4000CE20DF2081E0CD2809F480E088870E9443
:101C5000FD1A8160782F9A8789874E815F81688518
:101C60008A850E947A0E000F111FF801E855FE4F79
:101C700080819181E826F926F182E08206C08F5F9B
:101C8000EE0CFF1C8F30A9F6C5CF0E94191D0E94D3
:101C9000480D9091A7018917C9F00E94480D8093C3
:101CA000A7012A960FB6F894DEBF0FBECDBFDF9115
:101CB000CF911F910F91FF90EF90DF90CF90BF9049
:101CC000AF909F908F907F900C94C9042A960FB686
:101CD000F894DEBF0FBECDBFDF91CF911F910F9162
:101CE000FF90EF90DF90CF90BF90AF909F908F903C
:101CF0007F900895CF93DF93CDB7DEB72B970FB6C4
:101D0000F894DEBF0FBECDBF4F83588769877A87AF
:101D10008B87DE01119686E0FD0111928A95E9F725
:101D200085E0FE01379601900D928A95E1F7498191
:101D30005A816B817C818D819E810E9444152B96F6
:101D40000FB6F894DEBF0FBECDBFDF91CF910895DF
:101D5000FC01808191810E9418180895CF938823F7
:101D600009F4A4C0C82F8238C1F40E94480D81FD37
:101D70009DC069E380910001909101010E944B1A7E
:101D80000E94A5182FEF81EE94E0215080409040F2
:101D9000E1F700C0000069E319C0833801F50E9433
:101DA000480D80FD83C063E58091000190910101A1
:101DB0000E944B1A0E94A5182FEF81EE94E021504B
:101DC00080409040E1F700C0000063E58091000191
:101DD000909101010E94561ACF910C94A518843855
:101DE000C1F40E94480D82FD61C067E4809100014A
:101DF000909101010E944B1A0E94A5182FEF81EECD
:101E000094E0215080409040E1F700C0000067E47A
:101E1000DDCF8CEF8C0F813AD0F46C2F80910001D4
:101E2000909101010E94CB19882349F06C2F809179
:101E30000001909101010E94561A0E94A5186C2F72
:101E400080910001909101010E944B1AC5CF80E260
:101E50008C0F883048F4C77081E001C0880FCA95A4
:101E6000EAF70E945A18B8CFEBE5EC0FE33040F4E4
:101E7000F0E0E857FE4F808190E0CF910C947C0D0C
:101E8000E8E5EC0FE73150F4F0E0EE0FFF1FE65A03
:101E9000FE4F80819181CF910C94920DC03F30F024
:101EA0008C2F0E94211CCF910C940E1DCF91089570
:101EB000882309F464C0823879F40E94480D81FFB8
:101EC0005EC069E380910001909101010E944B1A6C
:101ED0000E94A51869E310C08338B1F40E94480D30
:101EE00080FF4DC063E580910001909101010E9447
:101EF0004B1A0E94A51863E58091000190910101A1
:101F00000E94561A0C94A518843879F40E94480D42
:101F100082FF35C067E480910001909101010E9429
:101F20004B1A0E94A51867E4E7CF9CEF980F913AEF
:101F300010F4682FE1CF90E2980F983050F487703A
:101F400091E001C0990F8A95EAF7892F0E946018E5
:101F5000D9CF9BE5980F933020F480E090E00C946B
:101F60007C0D98E5980F973120F480E090E00C9478
:101F7000920D803F20F00E94891C0C940E1D089544
:101F8000CF93C82F0E94AE0EC93349F42FEF87EECE
:101F900093E0215080409040E1F700C000008C2F7A
:101FA000CF910C94580F882321F00E945A180C945A
:101FB000A5180895882321F00E9460180C94A51894
:101FC0000895CF92DF92EF92FF920F931F93CF93DA
:101FD000DF937C01062FC72FFC01158112951F701E
:101FE000D281D1110E9477180E945018882379F06D
:101FF000DD2369F080E2800F883048F082E00E94A3
:10200000EF180E94501891E0D82ED92601C0D12C8B
:10201000CC2EC2948FE0C8228C2D90E0FC01E759B1
:10202000FF4F0C9401268C2F807FCF70882311F0F6
:10203000C295C07FDD2399F0CC2309F4C4C180E2AE
:10204000800F883010F0011104C08C2F0E945A18A4
:1020500003C08C2F0E946A180E94A518B4C1802F5B
:102060000E94580FCC2309F4D3C180E2800F88303E
:1020700010F0011104C08C2F0E94601803C08C2F37
:102080000E9470180E94A518C3C18C2F807FCF704A
:10209000803211F0C295C07F002319F00130C9F0E1
:1020A00022C0DD2371F0112341F0113031F40E9480
:1020B0008A188C2B0E949218ABC10E948A188C2B14
:1020C0001DC0112319F0113009F4A2C10E949B1800
:1020D00025C0DD2321F0163008F09AC10EC015305E
:1020E00008F096C11BC0DD2361F0112331F0F70128
:1020F000858180FF68C18F7085838C2F0E94D30FEC
:1021000087C1112359F0093309F06EC1FFEF27EEA3
:1021100083E0F15020408040E1F764C18C2F0E94A1
:10212000DA0F76C18C2F86958695837019F08130F1
:1021300061F06EC1DD2321F0802F9C2F937002C0CF
:1021400080E090E00E947C0D6BC1DD2321F0802FA8
:102150009C2F937002C080E090E00E94920D60C1BD
:10216000DD23F9F0053F51F0063F71F0043FA9F47B
:10217000809191029091920281600BC080919102B6
:1021800090919202826005C080919102909192029A
:1021900084609093920280939102802F0E94211C70
:1021A0001EC0053F51F0063F71F0043FA9F4809135
:1021B0009102909192028E7F0BC08091910290913A
:1021C00092028D7F05C080919102909192028B7F47
:1021D0009093920280939102802F0E94891C0E940A
:1021E0000E1D1EC18C2F837009F045C0D11114C182
:1021F000402F429546954770440F440F602F6F70F3
:10220000862F90E0A0E0B0E0042E04C0880F991F54
:10221000AA1FBB1F0A94D2F704FF10C00FE010E002
:1022200020E030E004C0000F111F221F331F4A9529
:10223000D2F7009510952095309503C000E010E08E
:102240009801C695C695C370BC01CD01602B712B5A
:10225000822B932BC23049F058F4C13019F00E9400
:102260009516DAC00E948316D7C00E94A716D4C064
:102270000E948116D1C0DD2319F08C2F817001C01E
:102280008695882309F4C8C0402F4295469547702B
:10229000440F440F602F6F70862F90E0A0E0B0E0F5
:1022A000042E04C0880F991FAA1FBB1F0A94D2F7DF
:1022B00004FF10C00FE010E020E030E004C0000F89
:1022C000111F221F331F4A95D2F7009510952095B4
:1022D000309503C000E010E09801C695C695C37024
:1022E000BC01CD01602B712B822B932BC23049F0A6
:1022F00058F4C13019F00E945A178EC00E94481736
:102300008BC00E946C1788C00E94BB1685C0CF701E
:10231000DD2339F08C2F0E94E116802F0E94D30F0D
:102320007BC0802F0E94DA0F8C2F0E94021774C08E
:10233000023F01F128F4003F41F0013FA1F03FC00E
:10234000033FF9F0043F39F13AC0DD2341F0153085
:1023500008F05EC08C2F8F710E94271759C016306D
:1023600008F056C0F7CFDD2339F08C2F8F710E9413
:10237000E1164EC0DD23C9F38C2F8F710E94021726
:1023800047C0DD2329F08C2F8F710E94CC1640C0EE
:102390000E94C7163DC0DD2349F0CF718C2F0E94EB
:1023A000E11663E08C2F0E94DA1832C081E00E94AF
:1023B000EF18123068F182E00E94EF1829C0DD2387
:1023C00031F0112391F2802F0E94AE0E21C0112313
:1023D00099F2093349F49FEFE7EEF3E09150E040C2
:1023E000F040E1F700C00000802F0E94580F10C09D
:1023F0004C2F4F70602FC7010E9425050E94F215D7
:102400000FC04C2F4F70602FC7010E94280508C0D5
:1024100088EF8C0D843020F40E94480D0E94C9047E
:10242000DD20C9F00E944C1880FD15C0F701128212
:102430000E9446180E94E116C7010E944C120E9499
:102440004618DF91CF911F910F91FF90EF90DF9091
:10245000CF900C940217DF91CF911F910F91FF90B5
:10246000EF90DF90CF9008950F931F93CF93DF935A
:10247000EC01688179818A810E9423188C010E9475
:102480007E170E946F16B801CE010E94E10FDF9106
:10249000CF911F910F910895CF93DF93FC0190810D
:1024A000818123813481232B31F08F3F31F481E00E
:1024B0009F3F19F403C081E001C080E080FD0EC0A1
:1024C000EF01CF010E94E204882341F0CE010E9477
:1024D0003412CE01DF91CF910C948C03DF91CF9118
:1024E00008950E9477180E9487180E94A5180E94DC
:1024F000381E0E940E1D80E090E00E947C0D80E05E
:1025000090E00C94920D80910001909101010E9445
:10251000611A0C9471120E9467180C948312E92FAF
:10252000E295EF704E2F50E0FA013297EE30F10550
:10253000B0F4E758FF4F0C940126803F91F018F457
:10254000883E68F40EC0843F51F40BC0883E48F0CA
:10255000813F29F406C093FB882780F9089580E025
:10256000089581E008950E9418180E948F1208951E
:10257000CF93DF9300D000D01F92CDB7DEB70F907E
:102580000F900F900F900F90DF91CF910895CF9300
:10259000DF9300D000D000D0CDB7DEB726960FB6BF
:1025A000F894DEBF0FBECDBFDF91CF9108951F938A
:1025B000CF93DF93C091B30116E08091B401C817A7
:1025C00099F0D0E01C9FF0011D9FF00D1124EB54F9
:1025D000FE4F4081518162817381848195810E9487
:1025E000C7122196C770E9CFDF91CF911F9108954F
:1025F0004091E5015091E6016091E7017091E80199
:102600008091E9019091EA010C94C7120F931F93F6
:10261000CF93DF938091EA0182958F7009F05DC0BE
:102620008091E701882309F458C08091B30110918B
:10263000B4016091E5017091E601C091E801D0918B
:10264000E90191E06F3F09F090E0292F06E0811742
:1026500009F443C0209721F07F3F21F030E003C010
:1026600031E001C0322F90E030FD34C0089FF0010E
:10267000099FF00D1124DF01AB54BE4F11963C9120
:102680001197371327C03C91361324C012963C9102
:10269000129731111FC013964D915C9114974C1BEA
:1026A0005D0B483C5105B0F48091EA018F70806168
:1026B0008093EA01E654FE4F80818F7080618083B1
:1026C00085EE91E00E944C12DF91CF911F910F9106
:1026D0000C94D71201968770BACFDF91CF911F91DA
:1026E0000F9108959F92AF92BF92CF92DF92EF9297
:1026F000FF920F931F93CF93DF93CDB7DEB7619710
:102700000FB6F894DEBF0FBECDBF8C0185E0F80197
:10271000DE011D9601900D928A95E1F7F801408146
:102720005181E2809091E5016091E6012091E801FC
:102730003091E9012115310531F06F3F31F481E02D
:102740009F3F19F403C081E001C080E0F82FF170D1
:102750009F2E80FD46C1F801A380B48085EEC82E6F
:1027600081E0D82EF090E701F501E21BF30BFF208A
:1027700009F4DFC08091EA01E83CF10508F09BC054
:10278000282F207F09F052C0561313C0491311C0DF
:10279000FE2CE1100EC08F7080618093EA010E94D0
:1027A000F812C6010E944C128091EA01F80185835B
:1027B00058C1AB2831F05F3F31F481E04F3F19F44D
:1027C00003C081E001C080E080FD03C081E08E2570
:1027D00002C080E090E0F82FF170FF2E80FF1CC057
:1027E0008091B3012091B40136E0821709F417C13A
:1027F00090E0389FF001399FF00D1124EB54FE4F0B
:102800006181561306C06081461303C06281E612DF
:1028100003C001968770E9CFFE2CEE2009F421C198
:102820008091EA0181608093EA015AC0561306C084
:10283000491304C0E11002C0F8019FC04D875E87B4
:102840008D859E850E94B312882379F1EE2069F16F
:102850002091EA01822F82958F7090E0029774F0A8
:102860008091E5019091E60198878F831986BB8658
:10287000AA862C87CE0107960E944C1286E0F801AA
:10288000A5EEB1E001900D928A95E1F70E94061342
:102890000E94F8120DC0561729F14D875E878D856D
:1028A0009E850E94B31281112CC0C8010E944C1257
:1028B000FF24F394D6C0282F207F69F77A2DB98A98
:1028C000A88A6E2D89890E94B81285EE91E00E9437
:1028D0004C1286E0F60111928A95E9F70E94F812EF
:1028E000F12CBFC04913D9CFE110D7CFF8018583B0
:1028F000C8010E944C1286E0F60111928A95E9F710
:10290000B0C0EE2091F22091EA01822F82958F7063
:1029100090E002970CF4B2CF8091E5019091E6012E
:102920009A8389831B82BD82AC822E83CE0101965D
:10293000A3CFE83CF10508F047C0FE2CEE2009F4D7
:10294000B4CF561330C049132EC02091EA0120FDA8
:1029500021C0822F82958F70482F50E0411551057C
:10296000C9F0F80125834F30510541F08F5F982F52
:102970009295907F822F8F70892B8583C8010E944A
:102980004C1286E0F801A5EEB1E001900D928A9517
:10299000E1F742C086E0F801A5EEB1E001900D92AA
:1029A0008A95E1F75EC04D875E878D859E850E9482
:1029B000B312811163CF8091EA0181608093EA01B3
:1029C000C8010E944C124DC07A2DB98AA88A6E2D7A
:1029D00089890E94B81286E0F60111928A95E9F77A
:1029E0001BC0EE2009F461CF4D875E878D859E85E3
:1029F0000E94B312F82E882309F457CF86E0F8011D
:102A0000A5EEB1E001900D928A95E1F785EE91E097
:102A10000E94A80E0E9406130E94F81222C04D8741
:102A20005E878D859E850E941818292F22952F700C
:102A3000223028F49F7039F0811105C00BC024307A
:102A400028F49F7049F4805E883020F0C8010E940D
:102A50004C129F2CF92C05C0F8019581907F99F7B5
:102A6000F9CF8F2D61960FB6F894DEBF0FBECDBFA4
:102A7000DF91CF911F910F91FF90EF90DF90CF905A
:102A8000BF90AF909F9008951F93CF93DF93CDB7E2
:102A9000DEB72C970FB6F894DEBF0FBECDBF4F83C5
:102AA000588769877A878B879C87CE0107960E9413
:102AB00072138823D1F09F8188852A853B85232B3B
:102AC00031F08F3F31F481E09F3F19F403C081E082
:102AD00001C080E080FD47C04F81588569857A85B7
:102AE0008B859C850E94C7123EC086E0FE0137960A
:102AF000DE01119601900D928A95E1F7FF81E8853C
:102B00006A857B856115710531F0EF3F31F481E015
:102B1000FF3F19F403C081E001C080E080FD23C0C5
:102B20002091B40130E0C901019687709927409146
:102B3000B30150E084179507F1F1F983EA837D83AF
:102B40006C8396E0929FD001939FB00D1124AB54FB
:102B5000BE4FFE01319601900D929A95E1F7809358
:102B6000B4010E94D71216E08091B3019091B40194
:102B7000891771F1189FC00111248B549E4F0E9438
:102B80007213882329F1E091B3011E9FF0011124F3
:102B9000EB54FE4F40815181628173818481958124
:102BA0000E94C7128091B30190E001968770992727
:102BB0008093B301D9CF0E948B121092B40110926E
:102BC000B301E5EEF1E086E0DF011D928A95E9F7B9
:102BD0002C960FB6F894DEBF0FBECDBFDF91CF911C
:102BE0001F910895EF92FF920F931F93CF93DF935E
:102BF0008C01892B09F46CC0F12CEE24E394E801DC
:102C00002196F8018491843740F4843008F051C053
:102C1000813081F0823019F15BC0853709F444C0FE
:102C2000A8F19CE7980F903708F052C08F770E9468
:102C3000580F41C00E5F1F4FFE01849190E2980F24
:102C4000983050F48770FE2D01C0FF0F8A95EAF787
:102C50008F2F0E947A1814C00E94AE0E2DC00E5FF6
:102C60001F4FFE01849190E2980F983060F48770B6
:102C7000FE2D01C0FF0F8A95EAF78F2F0E94801862
:102C80000E94A51819C00E94580F16C00E5F1F4F52
:102C9000FE01C491CC2381F08FE99FE00197F1F709
:102CA00000C00000C150F6CF0E5F1F4FFE01F49030
:102CB00003C00E94AE0E8E018F2D882309F49FCF92
:102CC000EFE9FFE03197F1F700C000008150F5CF48
:102CD000DF91CF911F910F91FF90EF90089508958C
:102CE00008950C9470160C9471160E9473166093DC
:102CF00021027093220280932302909324020C9469
:102D000071120C9475160F931F930091210210916C
:102D100022022091230230912402602B712B822BFE
:102D2000932B1F910F910C9475160F931F93009185
:102D3000210210912202209123023091240260236B
:102D40007123822393231F910F910C9475160F9377
:102D50001F930091210210912202209123023091B1
:102D6000240260277127822793271F910F910C94CB
:102D700075160C9470160E94B91660931D0270931C
:102D80001E0280931F02909320020C94711260E047
:102D900070E0CB010C94BB160F931F9341E050E001
:102DA00060E070E08A019B0104C0000F111F221F28
:102DB000331F8A95D2F7C901B8011F910F910C9466
:102DC000BB160F931F9341E050E060E070E004C039
:102DD000440F551F661F771F8A95D2F780911D02F9
:102DE00090911E02A0911F02B09120028A019B01C6
:102DF000082B192B2A2B3B2BC901B8011F910F91CE
:102E00000C94BB160F931F9341E050E060E070E01C
:102E100004C0440F551F661F771F8A95D2F740954F
:102E200050956095709580911D0290911E02A09121
:102E30001F02B09120028A019B01082319232A2333
:102E40003B23C901B8011F910F910C94BB160F933E
:102E50001F9341E050E060E070E004C0440F551F54
:102E6000661F771F8A95D2F780911D0290911E02EE
:102E7000A0911F02B09120028A019B010827192707
:102E80002A273B27C901B8011F910F910C94BB164B
:102E90000F931F9300911D0210911E0220911F029B
:102EA00030912002602B712B822B932B1F910F915D
:102EB0000C94BB160F931F9300911D0210911E02DC
:102EC00020911F02309120026023712382239323DB
:102ED0001F910F910C94BB160F931F9300911D022D
:102EE00010911E0220911F0230912002602771274D
:102EF000822793271F910F910C94BB1608952FE002
:102F0000929F800D1124E82FE695E695E69587704F
:102F100051E001C0550F8A95EAF785E0E89FF0017E
:102F20001124E551FE4F20E030E070E04081CB01FC
:102F3000022E02C0969587950A94E2F781708195DA
:102F400084278523842781932F5F3F4F25303105C8
:102F500069F708952FE0929F800D1124682F6695E0
:102F600066956695982F977085E0689FB00111244B
:102F700040E050E080E0FB01E40FF51FE551FE4F1B
:102F8000208130E0092E02C0369527950A94E2F799
:102F900021703327042E01C0220F0A94EAF7822BF6
:102FA0004F5F5F4F4530510531F70895BF92CF9283
:102FB000DF92EF92FF920F931F93CF93DF938C01D9
:102FC000C0901D02D0901E02E0901F02F0902002DF
:102FD0008091210290912202A0912302B0912402BB
:102FE000C82AD92AEA2AFB2ACFE1D0E0D701C601B4
:102FF0000C2E04C0B695A795979587950A94D2F79D
:1030000080FD04C0219790F7B12C07C0BC2EB801F9
:103010008C2F0E9431050197A9F38B2DDF91CF9161
:103020001F910F91FF90EF90DF90CF90BF90089588
:10303000CF93DF93EC010E94D617BE010E943105A9
:10304000DF91CF9108951F93CF93DF93EB01909180
:10305000B201992321F0CB010E94181813C08823D4
:1030600049F0CB010E94D617182F682FCE010E947D
:103070007F1704C0CB010E94AA17182FBE01812F11
:103080000E943105DF91CF911F9108958091250213
:103090008595859585950895809125028770089579
:1030A00090912502977081E009F480E00895809165
:1030B0004902089590914902892B8093490208950D
:1030C0008095909149028923809349020895109236
:1030D0004902089590914802892B809348020895EF
:1030E0008095909148028923809348020895109218
:1030F0004802089590914702892B809347020895D2
:1031000080959091470289238093470208951092F9
:103110004702089580912602089508950C948D1811
:103120000C948E1890912602981721F08093260215
:103130000C949018089580912602882329F010920B
:10314000260280E00C9490180895E0910001F0911F
:103150000101809149028083E0910001F091010119
:10316000908180914802892B8083E0910001F09149
:103170000101908180914702892B808380912602F2
:10318000882381F0E0910001F09101019081892B69
:10319000808380910001909101010E94B5198111F5
:1031A0000E949B1880910001909101010C94540D94
:1031B0000C948D1898E0899F90011124262B209360
:1031C00025020E94E11680912502859585958595B9
:1031D0000C94D8181092250280E00C94D8182091F5
:1031E00025028095822380932502982F977079F489
:1031F00030E0482F082E000C550B2417350739F006
:103200008595859585950E9402170C94EA18089576
:103210006FEF7FEF80E090E00C944E2680E090E02E
:103220000E942A2621E08C3E9E4F09F020E0822F4A
:10323000089582E090E00C94222683E090E00C94C4
:103240002226CF9384E090E00E942226C82F81E2BC
:1032500090E00E9422262C2F30E0A901582BCA01B1
:10326000CF910895CF93C92F682F84E090E00E94FA
:1032700030266C2F81E290E0CF910C943026AB0188
:10328000BC018FE090E00C944226AB01BC0183E1CD
:1032900090E00C94422660E070E0CB010C9445195C
:1032A00060E070E0CB010E943F190C944B196CEE6A
:1032B0007EEF80E090E00E944E2660E082E090E0A9
:1032C0000E94302660E083E090E00E943026109259
:1032D000210210922202109223021092240260E036
:1032E00084E090E00E94302660E081E290E00E945D
:1032F000302660E085E090E00E94302660E086E0C5
:1033000090E00E9430266FEF87E090E00E94302628
:1033100040E050E0BA0188E090E00E94422660E080
:103320008DE090E00E94302640E050E0BA0188E154
:1033300090E00E94422660E087E190E00E94302603
:1033400040E050E0BA018CE190E00E94422660E04B
:1033500080E290E00E9430260C9450190C9457198A
:10336000682F8EE090E00C943026FC01329680911C
:103370001401882331F08091970287FF02C09EE1FB
:1033800001C096E080E0915028F021912223D9F3EA
:103390008F5FF9CF0895662351F120911401222304
:1033A000E9F02091970227FF19C0462F46954695D0
:1033B00046954E31E0F4677021E030E002C0220F04
:1033C000331F6A95E2F7FC01E40FF11D828190E062
:1033D0002823392381E0232B69F409C0FC013296AC
:1033E00008962191621729F0E817F907D1F780E0D4
:1033F000089581E008959C01FC0132969FEF80E0E2
:103400004191461789F09F3F19F4411101C0982F4F
:103410008F5F8630A9F79F3F39F0F901E90FF11D61
:1034200097FDFA956283089508959C012A5F3F4FA6
:10343000FC014281461301C0128201968217930754
:10344000B9F70895262F2695269526952E3168F4EE
:10345000FC01E20FF11D677021E030E001C0220F96
:103460006A95EAF78281282B22830895262F2695D4
:10347000269526952E3170F4FC01E20FF11D677040
:1034800021E030E001C0220F6A95EAF720958281A1
:1034900028232283089520911401222329F02091CA
:1034A000970227FD0C94221A0C94FB192091140109
:1034B000222329F02091970227FD0C94361A0C94B0
:1034C000151A20911401FC013296222331F08091CB
:1034D000970287FF02C08EE101C086E0DF011D92E6
:1034E0008A95E9F7089508950C94731A0C94731A49
:1034F000CF930E94761A0E9489070E94741AC0E036
:103500008C2F0E942007892B29F4CF5FC530C1F78B
:1035100080E001C081E0CF9108950C94731A0C945F
:103520008D1A0E948F1A80919D02843049F1109269
:103530004B0220E488E190E00FB6F894A8958093C0
:1035400060000FBE2093600080E00E94C9040E94CA
:103550008F1A83B7817F846083BF83B7816083BF05
:103560007894889583B78E7F83BF0FB6F894A8951B
:1035700080916000886180936000109260000FBEAF
:1035800008950C94731A0E948B120E94480D0E9499
:10359000C9040C94C11A1F920F920FB60F921124F6
:1035A0008F939F93AF93BF9380914B02811113C070
:1035B0008091930290919402A0919502B09196020D
:1035C0004196A11DB11D8093930290939402A09304
:1035D0009502B0939602BF91AF919F918F910F90FA
:1035E0000FBE0F901F90189582E084BD93E095BDAB
:1035F0009AEF97BD80936E0008952FB7F89480914D
:10360000930290919402A0919502B09196022FBFDF
:1036100008952FB7F894609193027091940280916D
:103620009502909196022FBF08959C014FB7F89490
:103630008091930290919402A0919502B09196028C
:103640004FBF821B930B089578941F920F920FB671
:103650000F9211248F939F93AF93BF938091930206
:1036600090919402A0919502B09196020196A11DAD
:10367000B11D8093930290939402A0939502B0930E
:103680009602BF91AF919F918F910F900FBE0F90B7
:103690001F90189581E08093E00080E28093D8002D
:1036A0001092C9008FE19EE40197F1F700C000007D
:1036B00087E090EBDC018093A6029093A702A09391
:1036C000A802B093A9029CE088E10FB6F894A895EF
:1036D000809360000FBE90936000FFCF0C94880829
:1036E0000E9489072FEF86E791E0215080409040AB
:1036F000E1F700C000000E94890780E00E942007D7
:1037000080FF04C00E946E1B0C944A1B08950E9407
:103710000E19811102C00E94AE190E9419198093DE
:103720004A020E94211990939802809397020E9466
:103730001D19682F70E080E090E00C948116809154
:10374000530280FF0BC06091070185E0689FB001C4
:10375000112475956795759567952BC081FF09C0F4
:103760006091070185E0689FB00111247595679508
:1037700020C082FF07C06091070185E0689FB0010B
:10378000112417C0909152029923D1F06091060143
:10379000961788F72091070185E0289F9001112452
:1037A000929FA001939F500D112470E0CA010E94C6
:1037B000ED256038710540F46115710519F406C0F6
:1037C00065E070E0862F08958FE7089581E0089501
:1037D0008091530280FF08C06091030170E07595ED
:1037E00067957595679521C081FF06C060910301BB
:1037F00070E07595679519C082FF04C06091030160
:1038000070E010C090915202992399F060910201EA
:103810009617A0F780910301899FC001112470E0E1
:103820000E94ED256038710540F46115710519F4A9
:1038300006C061E070E0862F08958FE7089581E06B
:103840000895803F21F40E949F1B819504C0813F11
:1038500029F40E949F1B809357020895823F21F410
:103860000E949F1B819504C0833F29F40E949F1BE7
:10387000809356020895893F19F40E94E81B05C001
:103880008A3F31F40E94E81B819580935802089585
:103890008B3F21F40E94E81B819504C08C3F29F4E2
:1038A0000E94E81B809359020895843F21F480917F
:1038B0005502816017C0853F21F4809155028260D6
:1038C00011C0863F21F48091550284600BC0873F70
:1038D00021F480915502886005C0883F31F48091C1
:1038E000550280618093550208958D3F21F48091A7
:1038F000530281600BC08E3F21F48091530282609D
:1039000005C08F3F29F48091530284608093530255
:103910000895803F39F48091570287FF6CC0109260
:10392000570269C0813F29F4809157021816BCF3F1
:1039300062C090915602823F29F497FF5CC01092BA
:10394000560259C0833F19F41916CCF354C0893F6D
:1039500041F48091580218160CF04DC01092580294
:103960004AC08A3F29F48091580287FF44C0F6CFAD
:103970008B3F39F48091590287FF3DC01092590264
:103980003AC08C3F29F4809159021816BCF333C019
:10399000843F21F4809155028E7F17C0853F21F42A
:1039A000809155028D7F11C0863F21F48091550290
:1039B0008B7F0BC0873F21F480915502877F05C024
:1039C000883F31F4809155028F7E8093550213C059
:1039D0008D3F21F4809153028E7F0BC08E3F21F4E6
:1039E000809153028D7F05C08F3F29F4809153024F
:1039F0008B7F809353028091560281110EC080917B
:103A0000570281110AC080915802811106C080912D
:103A10005902811102C010925202089584E592E089
:103A20000E946E0D0E94FD1A9093510280935002E5
:103A30000895CF93DF9300D000D000D0CDB7DEB78C
:103A400086E0E4E5F2E0DE01119601900D928A95A0
:103A5000E1F780915602811105C0809157028823B9
:103A600009F47AC080914E0290914F020E94151B7A
:103A7000AC0190915202992339F02091080130E075
:103A80002417350758F068C0209109018AE0289F63
:103A9000900111242417350718F05EC09F3F19F0DC
:103AA0009F5F909352021092580210925902809197
:103AB0005602181624F40E949F1B80935602809190
:103AC000560287FF05C00E949F1B81958093560276
:103AD00080915702181624F40E949F1B809357026E
:103AE0008091570287FF05C00E949F1B819580939C
:103AF0005702309156023323E1F0209157022223DE
:103B0000C1F045EB3403C0011124992319F09093BF
:103B1000560203C081E08093560235EB2303C001B7
:103B20001124992319F09093570203C081E08093E8
:103B300057020E940E1D8091500290915102909365
:103B40004F0280934E0286E0FE013196A4E5B2E07A
:103B500001900D928A95E1F780915802811105C07C
:103B600080915902882309F47AC080914C02909187
:103B70004D020E94151BAC0190915202992339F01D
:103B80002091040130E02417350758F068C02091D7
:103B900005018AE0289F900111242417350718F0A9
:103BA0005EC09F3F19F09F5F9093520210925602A1
:103BB0001092570280915802181624F40E94E81BB4
:103BC000809358028091580287FF05C00E94E81B2D
:103BD00081958093580280915902181624F40E940E
:103BE000E81B809359028091590287FF05C00E940B
:103BF000E81B819580935902309158023323E1F0FC
:103C0000209159022223C1F045EB3403C001112455
:103C1000992319F09093580203C081E080935802D1
:103C200035EB2303C0011124992319F09093590215
:103C300003C081E0809359020E940E1D80915002C2
:103C40009091510290934D0280934C0286E0FE01C8
:103C50003196A4E5B2E001900D928A95E1F726969F
:103C60000FB6F894DEBF0FBECDBFDF91CF910895A0
:103C7000E4E5F2E086E0DF011D928A95E9F7109213
:103C8000520210925302089580917A020895CF93C0
:103C9000DF9300D01F92CDB7DEB790919D02943094
:103CA00011F589837B836A839093E9008FEF90916C
:103CB000E800815095FD06C095ED9A95F1F700005A
:103CC0008111F5CF8091E80085FF0DC040E050E004
:103CD00063E070E0CE0101960E9404218091E8002B
:103CE0008E778093E8000F900F900F90DF91CF9127
:103CF0000895CF93DF93EC010E94E720823011F00A
:103D0000843031F4BE0184E0DF91CF910C94471EE2
:103D1000DF91CF910895BC0183E00C94471ECF93AF
:103D2000DF93EC010E94E720823011F08430F9F437
:103D300084E08093E9008FEF9091E800815095FD39
:103D400006C095ED9A95F1F700008111F5CF8091AD
:103D5000E80085FF0CC040E050E066E070E0CE0176
:103D60000E9404218091E8008E778093E800DF9123
:103D7000CF910895CF93DF93EC010E94E72082302A
:103D800011F08430D9F580911401882339F08091A5
:103D9000970287FF03C060E284E002C068E081E030
:103DA0008093E9008FEF9091E800815095FD06C067
:103DB00095ED9A95F1F700008111F5CF8091E8001B
:103DC00085FF1CC080911401811105C040E050E0C6
:103DD00068E070E003C070E040E050E0CE010E9477
:103DE00004218091E8008E778093E80080E2FE0154
:103DF000AAE5B2E001900D928A95E1F7DF91CF91AB
:103E00000895CF93603219F520919D022430F9F482
:103E1000C091E900CF703091EC00232F217030FD6C
:103E200020E8C22B22E02093E9002091E80020FF47
:103E30000BC040E050E060E270E00E9404218091FD
:103E4000E8008E778093E800CF70C093E900CF91AF
:103E5000089580919C02811109C00E94E0220E9475
:103E60003D238091E20084608093E20008951092E7
:103E70009C020895089508950C94C31A42E061ECE1
:103E800081E00E94592242E261EC84E00E945922C2
:103E900042E261EC82E00E94592242E260EC83E05F
:103EA0000C94592280919F02833009F462C030F44F
:103EB000813071F0823009F49BC008958A3009F492
:103EC00087C08B3009F46DC0893009F0A9C020C0CB
:103ED00080919E02813A09F0A3C08091E800877F1B
:103EE0008093E8008091A2029091A302892B21F493
:103EF00060E28AE592E003C060E080E090E070E07C
:103F00000E949A218091E8008B778093E8000895C1
:103F100080919E02813209F083C08091A20290912B
:103F2000A302009719F0029709F07AC08091E80087
:103F3000877F8093E8008091E80082FD05C0809132
:103F40009D028111F8CF6CC02091F3008091F200A6
:103F500090E0922B029729F48091F1008B7F8130C1
:103F600021F48091F10080937A028091E8008B77B0
:103F700053C080919E02813A09F052C08091A20202
:103F80009091A302892B09F04BC08091E800877FB4
:103F90008093E8008091E80080FFFCCF80911401BD
:103FA00036C080919E028132D9F58091A202909113
:103FB000A302892BA9F58091E800877F8093E80010
:103FC0000E948E228091A002809314010C948B1287
:103FD00080919E02813221F58091E800877F809355
:103FE000E8000E948E228091A10280937B020895B6
:103FF00080919E02813AA1F48091E800877F8093AE
:10400000E8008091E80080FFFCCF80917B028093E4
:10401000F1008091E8008E778093E8000C948E2266
:1040200008951F93CF93DF93CDB7DEB7A0970FB658
:10403000F894DEBF0FBECDBF84B7877F84BF0FB6B5
:10404000F894A89580916000886180936000109238
:1040500060000FBE90E080E80FB6F8948093610096
:10406000909361000FBE0E94B60D0E94E0220E9454
:104070003D238091E20084608093E20078940E9466
:10408000D2250E94C00D8AE091E00E94430D13E00A
:1040900080919D02853069F40E94911A80919B0263
:1040A0008823B1F30E94781A882391F30E94EE20AE
:1040B000EFCF0E94CA0D80919D02843049F7109382
:1040C000E9008091E80082FFE3CF8091E80085FF5E
:1040D0000AC040E050E060E270E0CE0101960E942C
:1040E0004F2191E001C090E08091E8008B778093B0
:1040F000E800992369F260E2CE0101960E94EA0885
:10410000C7CF0C948320292F332723303105C9F0E2
:1041100060F42130310581F02230310509F047C0CB
:104120008BE590E028E434E046C02132310511F1FE
:104130002232310561F13BC082E190E023EA34E0B4
:104140003AC099278130910561F040F082309105A5
:1041500059F0039761F5EAE1F4E008C0E4E4F4E023
:1041600005C0ECE2F4E002C0E0E2F4E0849190E00B
:104170009F0121C063307105D0F4660F771FFB01EA
:10418000EC56FE4F2081318189E090E014C063300D
:10419000710568F4FB01EE0FFF1FE257FE4F20810F
:1041A0003181FB01E557FE4F808190E004C080E043
:1041B00090E020E030E0FA0131832083089580917F
:1041C0009D02843011F081E0089582E0089580918D
:1041D0007C02811102C00C94DF20089580E189BD2A
:1041E00082E189BD09B400FEFDCF8091D8008F7DAA
:1041F0008093D8008091E00082608093E0008091FD
:10420000E00081FDFCCF0895CF92DF92EF92FF9204
:104210000F931F93CF93DF93EC018B017A010E94E0
:10422000AD22811133C0E114F10439F0F70180812E
:104230009181081B190BC80FD91FC12CD12C011556
:10424000110519F18091E80085FD16C08091E80004
:104250008E778093E800E114F10449F0F701808142
:104260009181C80ED91ED182C08285E00FC00E9404
:10427000AD22882321F30AC089918093F100015077
:104280001109FFEFCF1ADF0ADACF80E0DF91CF917B
:104290001F910F91FF90EF90DF90CF900895CF92F4
:1042A000DF92EF92FF920F931F93CF93DF93EC0176
:1042B0008B017A010E94AD22811133C0E114F10417
:1042C00039F0F70180819181081B190BC80FD91FA4
:1042D000C12CD12C0115110519F18091E80085FD43
:1042E00016C08091E8008B778093E800E114F10418
:1042F00049F0F70180819181C80ED91ED182C08218
:1043000085E00FC00E94AD22882321F30AC080916E
:10431000F100899301501109FFEFCF1ADF0ADACFBC
:1043200080E0DF91CF911F910F91FF90EF90DF9090
:10433000CF9008952091A4023091A5022617370747
:1043400048F06115710539F42091E8002E7720932B
:10435000E80001C0B901FC0120E06115710579F1A7
:1043600080919D028823F1F18530F1F18091E80080
:1043700083FD3CC08091E80082FD2EC08091E80062
:1043800080FFEBCF2091F3008091F20090E0922B20
:104390006115710551F08830910538F42191209311
:1043A000F100615071090196F3CF21E0089709F0FF
:1043B00020E08091E8008E778093E800CECF211135
:1043C000CFCF0AC080919D02882361F0853061F0D3
:1043D0008091E80083FD0AC08091E80082FFF2CF5F
:1043E00080E0089582E0089583E0089581E00895D3
:1043F0002091A4023091A5022617370748F06115D5
:10440000710539F42091E8002E772093E80001C06F
:10441000B901FC0120E06115710591F180919D02C7
:10442000882309F440C0853009F43FC08091E8003A
:1044300083FD3DC08091E80082FD2FC08091E8009F
:1044400080FFE9CF2091F3008091F20090E0922B61
:104450006115710559F08830910540F4249120933D
:10446000F1003196615071090196F2CF21E0089771
:1044700009F020E08091E8008E778093E800CBCFB0
:104480002111CCCF0AC080919D02882361F0853034
:1044900061F08091E80083FD0AC08091E80082FF0E
:1044A000F2CF80E0089582E0089583E0089581E0EE
:1044B0000895982F973068F59093E900981739F090
:1044C0007091EC002091ED005091F00003C0242F7A
:1044D000762F50E021FD02C09F5FECCF3091EB00C2
:1044E0003E7F3093EB003091ED003D7F3093ED0047
:1044F0003091EB0031603093EB007093EC0020932F
:10450000ED005093F0002091EE0027FDE5CF80E014
:1045100008958F708093E90081E0089580919E0254
:1045200087FF11C08091E80082FD05C080919D0247
:104530008111F8CF11C08091E8008B770BC080917A
:104540009D02882349F08091E80080FFF8CF809198
:10455000E8008E778093E80008952091E400309180
:10456000E50095E64091EC00842F817040FF23C068
:104570008091E80080FD1DC080919D02882399F004
:10458000853099F08091EB0085FD11C04091E400E9
:104590005091E5002417350729F3915011F09A0145
:1045A000E1CF84E0089582E0089583E0089581E0FA
:1045B000089580E008954091E80042FFDDCF08951E
:1045C0000E944E230E945623E0EEF0E0808181603D
:1045D0008083E8EDF0E080818F77808319BCA7EDC0
:1045E000B0E08C918E7F8C9380818F7E808310923F
:1045F0009C0208950F931F93CF93DF930E944E2345
:104600000E945623C8EDD0E088818F778883888107
:104610008068888388818F7D888319BC10929D0271
:104620001092990210929B0210929A0200EE10E0F2
:10463000F80180818B7F808388818160888342E05C
:1046400060E080E00E945922E1EEF0E080818E7F00
:104650008083E2EEF0E080818160808380818860E9
:104660008083F80180818E7F808388818061888348
:10467000DF91CF911F910F910895E8EDF0E08081D7
:104680008F7E8083E7EDF0E080818160808384E02D
:1046900082BF81E080939C020C94FA22E8EDF0E066
:1046A00080818E7F80831092E20008951092DA005C
:1046B0001092E10008951F920F920FB60F921124ED
:1046C0002F933F934F935F936F937F938F939F931A
:1046D000AF93BF93EF93FF938091E10082FF0BC0F4
:1046E0008091E20082FF07C08091E1008B7F809380
:1046F000E1000E94D1258091DA0080FF1FC08091E7
:10470000D80080FF1BC08091DA008E7F8093DA0092
:104710008091D90080FF0DC080E189BD82E189BD13
:1047200009B400FEFDCF81E080939D020E94291F05
:1047300005C019BC10929D020E94371F8091E100B4
:1047400080FF19C08091E20080FF15C08091E200D7
:104750008E7F8093E2008091E20080618093E2008E
:104760008091D80080628093D80019BC85E0809346
:104770009D020E943B1F8091E10084FF30C0809128
:10478000E20084FF2CC080E189BD82E189BD09B4CB
:1047900000FEFDCF8091D8008F7D8093D80080915E
:1047A000E1008F7E8093E1008091E2008F7E809314
:1047B000E2008091E20081608093E20080919902A2
:1047C000882311F084E007C08091E30087FD02C0D8
:1047D00081E001C083E080939D020E943C1F809194
:1047E000E10083FF29C08091E20083FF25C0809112
:1047F000E100877F8093E10082E080939D02109228
:1048000099028091E1008E7F8093E1008091E20027
:104810008E7F8093E2008091E20080618093E200CD
:1048200042E060E080E00E9459228091F0008860C0
:104830008093F0000E943A1FFF91EF91BF91AF91DA
:104840009F918F917F916F915F914F913F912F91A8
:104850000F900FBE0F901F9018951F920F920FB6DA
:104860000F9211242F933F934F935F936F937F93F6
:104870008F939F93AF93BF93CF93DF93EF93FF9368
:10488000C091E900CF708091EC00D82FD17080FDED
:10489000D0E81092E9008091F000877F8093F000CB
:1048A00078940E9471241092E9008091F000886051
:1048B0008093F000CD2BCF70C093E900FF91EF9172
:1048C000DF91CF91BF91AF919F918F917F916F9128
:1048D0005F914F913F912F910F900FBE0F901F90BE
:1048E00018951F93CF93DF93CDB7DEB7AA970FB676
:1048F000F894DEBF0FBECDBFEEE9F2E08091F1008B
:10490000819322E0E63AF207C9F70E94521F809194
:10491000E80083FF2EC180919E0290919F02492F53
:1049200050E04A30510508F024C1FA01E957FF4F21
:104930000C940126803821F0823809F01AC108C091
:1049400080919A0290919B02992389F082600FC016
:104950008091A2028F70873008F00BC18093E9002C
:104960008091EB0085FB882780F91092E9009091F7
:10497000E800977F9093E8008093F1001092F10097
:10498000D1C0282F2D7F09F0F4C0882319F0823080
:1049900061F0EFC08091A002813009F0EAC093304D
:1049A00009F080E080939B022EC08091A0028111CB
:1049B0002AC08091A2028F702FEF280F263008F0B6
:1049C000D8C08093E9002091EB0020FF1CC09330F9
:1049D00021F48091EB00806214C09091EB00906113
:1049E0009093EB0021E030E0A90102C0440F551F75
:1049F0008A95E2F74093EA001092EA008091EB007A
:104A000088608093EB001092E9008091E800877F36
:104A10008093E8000E948E22ACC08111AAC0109140
:104A2000A0021F778091E3008078812B8093E300C0
:104A30008091E800877F8093E8000E948E22809119
:104A4000E80080FFFCCF8091E30080688093E30062
:104A5000111102C082E001C083E080939D0289C0F1
:104A60008058823008F085C08091A0029091A10208
:104A70008C3D53E0950779F583E08A838AE2898348
:104A80004FB7F894DE01139620E03EE051E2E32FA9
:104A9000F0E050935700E49120FF03C0E295EF70DF
:104AA0003F5FEF708E2F90E0EA3010F0C79601C0A4
:104AB000C0968D939D932F5F243149F74FBF80910E
:104AC000E800877F8093E8006AE270E0CE010196FB
:104AD0000E949A2116C06091A2027091A302AE01B9
:104AE0004F5F5F4F0E948120BC01892B09F441C0B8
:104AF0009091E800977F9093E80089819A810E94C5
:104B0000F8218091E8008B778093E80032C08038EC
:104B100081F58091E800877F8093E8008091990279
:104B20008093F1008091E8008E7772CF811121C0CF
:104B30008091A0029091A10299270297D4F48091CC
:104B4000E800877F8093E8008091A002809399021B
:104B50000E948E2280919902811106C08091E3000B
:104B600087FD02C081E001C084E080939D020E9425
:104B70003E1F8091E80083FF0AC08091E800877F94
:104B80008093E8008091EB0080628093EB00AA960E
:104B90000FB6F894DEBF0FBECDBFDF91CF911F914E
:104BA00008950895CF9380919D028823A1F0C0912C
:104BB000E900CF709091EC00892F817090FD80E822
:104BC000C82B1092E9008091E80083FD0E947124B7
:104BD000CF70C093E900CF91089597FB072E16F48C
:104BE000009407D077FD09D00E940E2607FC05D05F
:104BF0003EF4909581959F4F0895709561957F4FF4
:104C00000895EE0FFF1F0590F491E02D0994692798
:104C1000962769277827872778270895AA1BBB1B23
:104C200051E107C0AA1FBB1FA617B70710F0A61BAC
:104C3000B70B881F991F5A95A9F780959095BC01CD
:104C4000CD010895F999FECF92BD81BDF89A9927BB
:104C500080B50895A8E1B0E042E050E00C945626FB
:104C6000262FF999FECF92BD81BDF89A019700B425
:104C7000021639F01FBA20BD0FB6F894FA9AF99AC5
:104C80000FBE08950396272F0E9431260E943026DA
:104C9000252F0E943126242F0C9431260196272F90
:104CA0000E9431260C943026DC01CB01FC01F999DD
:104CB000FECF06C0F2BDE1BDF89A319600B40D9268
:0C4CC00041505040B8F70895F894FFCF21
:104CCC0027022808641E140A321E441EBA1E8F1EA8
:104CDC008B1E791E01E200E900EA00B500B600B7B0
:104CEC0000CD008301CC008A0192019401210223A2
:104CFC000224022502260227022A02B300B4006F06
:104D0C0000700081828330313233379091929395C9
:104D1C009496973435366667F7F6E200E900EA00B8
:104D2C00B500B600B700CD008301CC008A0192011A
:104D3C0094012102230224022502260227022A02C0
:104D4C00B300B4006F0070008182834022BC9305D5
:0A4D5C00B504D7045A04730493044D
:00000001FF
